{
  "contractName": "Crowdfund",
  "abi": [
    {
      "constant": true,
      "inputs": [],
      "name": "getGoal",
      "outputs": [
        {
          "internalType": "uint256",
          "name": "",
          "type": "uint256"
        }
      ],
      "payable": false,
      "stateMutability": "view",
      "type": "function"
    },
    {
      "constant": true,
      "inputs": [],
      "name": "getSum",
      "outputs": [
        {
          "internalType": "uint256",
          "name": "",
          "type": "uint256"
        }
      ],
      "payable": false,
      "stateMutability": "view",
      "type": "function"
    },
    {
      "constant": false,
      "inputs": [
        {
          "internalType": "address",
          "name": "donor",
          "type": "address"
        }
      ],
      "name": "donate",
      "outputs": [],
      "payable": true,
      "stateMutability": "payable",
      "type": "function"
    },
    {
      "constant": false,
      "inputs": [
        {
          "internalType": "address payable",
          "name": "beneficiary",
          "type": "address"
        }
      ],
      "name": "endCampaing",
      "outputs": [
        {
          "internalType": "bool",
          "name": "",
          "type": "bool"
        }
      ],
      "payable": false,
      "stateMutability": "nonpayable",
      "type": "function"
    }
  ],
  "bytecode": "0x6080604052600060015568056bc75e2d631000006002556001600360006101000a81548160ff02191690831515021790555034801561003d57600080fd5b506102da8061004d6000396000f3fe60806040526004361061003e5760003560e01c8062362a9514610043578063569c5f6d14610087578063b97a7d24146100b2578063d6f47796146100dd575b600080fd5b6100856004803603602081101561005957600080fd5b81019080803573ffffffffffffffffffffffffffffffffffffffff169060200190929190505050610146565b005b34801561009357600080fd5b5061009c610203565b6040518082815260200191505060405180910390f35b3480156100be57600080fd5b506100c761020d565b6040518082815260200191505060405180910390f35b3480156100e957600080fd5b5061012c6004803603602081101561010057600080fd5b81019080803573ffffffffffffffffffffffffffffffffffffffff169060200190929190505050610217565b604051808215151515815260200191505060405180910390f35b6000341180156101835750600073ffffffffffffffffffffffffffffffffffffffff168173ffffffffffffffffffffffffffffffffffffffff1614155b801561019b5750600360009054906101000a900460ff165b6101a457600080fd5b34600160008282540192505081905550346000808373ffffffffffffffffffffffffffffffffffffffff1673ffffffffffffffffffffffffffffffffffffffff1681526020019081526020016000206000828254019250508190555050565b6000600154905090565b6000600254905090565b6000600360009054906101000a900460ff1661023257600080fd5b6000600360006101000a81548160ff0219169083151502179055508173ffffffffffffffffffffffffffffffffffffffff166108fc6001549081150290604051600060405180830381858888f19350505050158015610295573d6000803e3d6000fd5b506002546001541015905091905056fea265627a7a72315820d0f337e3caef92a5125f8687edb28d457b4d038e6d775c5c1697605779b45c6764736f6c63430005100032",
  "source": "pragma solidity ^0.5.0;\n\ncontract Crowdfund {\n    \n    mapping(address => uint) pledges;\n    uint sum = 0;\n    uint goal = 100 ether;\n    bool campaingLive = true;\n\n    function getGoal() external view returns (uint) {\n        return goal;\n    }\n\n    function getSum() external view returns (uint) {\n        return sum;\n    }\n\n    function donate(address donor) external payable {\n        require(msg.value > 0 && donor != address(0) && campaingLive);\n        sum += msg.value;\n        pledges[donor] += msg.value;\n    }\n\n    function endCampaing(address payable beneficiary) external returns (bool) {\n        require(campaingLive);\n        campaingLive = false;\n        beneficiary.transfer(sum);\n        return sum >= goal;\n    }\n}\n",
  "sourcePath": "/home/acmc/repos/ds-project/contracts/Crowdfund.sol",
  "compiler": {
    "name": "solc",
    "version": "0.5.16+commit.9c3226ce.Emscripten.clang"
  },
  "schemaVersion": "3.4.10",
  "updatedAt": "2022-11-17T16:10:32.589Z",
  "networkType": "ethereum",
  "devdoc": {
    "methods": {}
  },
  "userdoc": {
    "methods": {}
  }
}